:0D001E0005121E29333C444B51565A5D5FBC
:10000300010D00010E00010F0001100004090000A2
:070013000000C1000108001C
:1003390075CB4C75CA0BE4F5C885CBCD85CACCD233
:04034900CAD2AD2245
:0201D7008D1188
:1001D900AB07AA06E4F9F8FF7E107D0EFC1202A116
:1001E9008F0C8E0B8D0A8C09AF11E4FCFDFEAB0C54
:1001F900AA0BA90AA80912002EE47B64FAF9F812DD
:1002090000B9AD07AC06C3E50C9DFFE50B9CAB0738
:10021900FAC3740C9DFDE49CFCC3740C9BFBE49A2B
:100229008C0D8D0EF50F8B1053890F438910850D99
:0A0239008D850E8BD2ABD28ED2B3AE
:010243002298
:1002E500E4FCFDFEAB0CAA0BA90AA80912002EE43A
:1002F5007B64FAF9F81200B9AD07AC06C3E50C9DAD
:10030500FFE50B9CAB07FAC3740C9DFDE49CFCC395
:0E031500740C9BFBE49A8C0D8D0EF50F8B1073
:0103230022B7
:03001B00020324B9
:1003240030B309850F8D85108BC2B332850D8D8551
:050334000E8BD2B33274
:03002B000202448A
:10024400C0E0C0F0C083C082C0D075D000C000C080
:0D02540001C002C003C004C005C006C00701
:1002610085CBCD85CACCE50890001E93FF1202E52F
:1002710020000D0508E508C3940C4009D200800553
:05028100D50802C200D7
:10028600D007D006D005D004D003D002D001D000CC
:0B029600D0D0D082D083D0F0D0E03276
:10034D00D2AF7D0A7F0A7E001201D712033980FEDB
:0300000002014BAF
:0C014B00787FE4F6D8FD75812002019257
:10002E00E88FF0A4CC8BF0A42CFCE98EF0A42CFC71
:10003E008AF0EDA42CFCEA8EF0A4CDA8F08BF0A4EF
:10004E002DCC3825F0FDE98FF0A42CCD35F0FCEB4E
:10005E008EF0A4FEA9F0EB8FF0A4CFC5F02ECD3913
:0F006E00FEE43CFCEAA42DCE35F0FDE43CFC2280
:10007D0075F008758200EF2FFFEE33FECD33CDCC3A
:10008D0033CCC58233C5829BED9AEC99E5829840BD
:10009D000CF582EE9BFEED9AFDEC99FC0FD5F0D69A
:1000AD00E4CEFBE4CDFAE4CCF9A88222B800C1B9C4
:1000BD000059BA002DEC8BF084CFCECDFCE5F0CB02
:1000CD00F97818EF2FFFEE33FEED33FDEC33FCEB3B
:1000DD0033FB10D703994004EB99FB0FD8E5E4F9F6
:1000ED00FA227818EF2FFFEE33FEED33FDEC33FCE3
:1000FD00C933C910D7059BE99A4007EC9BFCE99AD7
:10010D00F90FD8E0E4C9FAE4CCFB2275F010EF2F1B
:10011D00FFEE33FEED33FDCC33CCC833C810D7071B
:10012D009BEC9AE899400AED9BFDEC9AFCE899F856
:0E013D000FD5F0DAE4CDFBE4CCFAE4C8F922E9
:1002A100C2D5E830E70FB2D5E4C39BFBE49AFAE488
:1002B10099F9E498F8EC30E717B2D51202D7120099
:1002C100B9E4C39BFBE49AFAE499F9E498F8800352
:1002D1001200B930D50DE4C39FFFE49EFEE49DFDFD
:0402E100E49CFC227B
:1001570002034DE493A3F8E493A34003F68001F26E
:1001670008DFF48029E493A3F85407240CC8C333A9
:10017700C4540F4420C8834004F456800146F6DF78
:10018700E4800B0102040810204080900003E47E05
:10019700019360BCA3FF543F30E509541FFEE4936D
:1001A700A360010ECF54C025E060A840B8E493A334
:1001B700FAE493A3F8E493A3C8C582C8CAC583CA5F
:1001C700F0A3C8C582C8CAC583CADFE9DEE780BE17
:01001A0000E5
:00000001FF
