:10016100D2AF12001E12049D900000AF82AE83E454
:10017100FCFD7B607AEAF9F8D312014B4003A380BE
:10018100EAE4F583F582AF82AE83E4FCFD7B607A1D
:10019100EAF9F8D312014B4003A380EAE4F583F5B1
:1001A10082AF82AE83E4FCFD7B607AEAF9F8D31278
:1001B100014B4003A380EA1204B9E4F583F582AF51
:1001C10082AE83E4FCFD7B607AEAF9F8D312014B3D
:1001D1004003A380EAE4F583F582AF82AE83E4FCB9
:1001E100FD7B607AEAF9F8D312014B4003A380EA60
:1001F100E4F583F582AF82AE83E4FCFD7B607AEAAD
:10020100F9F8D312014B4003A380EA1204ABE4F5E1
:1002110083F582AF82AE83E4FCFD7B607AEAF9F874
:10022100D312014B4003A380EAE4F583F582AF8248
:10023100AE83E4FCFD7B607AEAF9F8D312014B400E
:1002410003A380EAE4F583F582AF82AE83E4FCFD8B
:100251007B607AEAF9F8D312014B5003020166A3DD
:0202610080E734
:10048D0001050A12171E29333C444B51565A5D5F24
:10045B00010A00010F00011000011100011200043C
:0D046B000B00000000C100010800010900A5
:1004790075CB4C75CA29E4F5C885CBCD85CACCC2E4
:04048900CAC2AD2214
:02036B008D13F0
:10036D00AB07AA06E4F9F8FF7E107D0EFC1203D848
:10037D008F0E8E0D8D0C8C0BAF13E4FCFDFEAB0EB2
:10038D00AA0DA90CA80B12002EE47B64FAF9F81241
:10039D0000B9AD07AC06C3E50E9DFFE50D9CAB079F
:1003AD00FAC3740C9DFDE49CFCC3740C9BFBE49A96
:1003BD008C0F8D10F5118B1253890F438910850FFA
:0A03CD008D85108BC2ABC28ED2B337
:0103D7002203
:10041C00E4FCFDFEAB0EAA0DA90CA80B12002EE4F9
:10042C007B64FAF9F81200B9AD07AC06C3E50E9D72
:10043C00FFE50D9CAB07FAC3740C9DFDE49CFCC35B
:0E044C00740C9BFBE49A8C0F8D10F5118B1233
:01045A00227F
:03001B00020003DD
:1000030030B30985118D85128BC2B332850F8D856F
:05001300108BD2B33296
:03002B000202EFDF
:1002EF00C0E0C0F0C083C082C0D075D000C000C0D5
:0D02FF0001C002C003C004C005C006C00756
:10030C00C2CFE50A14602814603524027036E50863
:10031C0090048D93FF12041C20000D0508E508C302
:10032C00940F4020D200801CD50819C200801505FE
:10033C0009E509D3940A400C750900B2B380052075
:04034C00B302D2B373
:10035000D007D006D005D004D003D002D001D00001
:0B036000D0D0D082D083D0F0D0E032AB
:0C001E007D0A7F647E0012036B020479EF
:0C04B900E4F50AD2ABD28ED2ADD2CA223A
:0E049D00750A01D2B3C2ABC28ED2ADD2CA2252
:0E04AB00750A02C2ABC28EC2ADC2CAD2B32263
:0300000002026396
:0C026300787FE4F6D8FD7581200202AA25
:10002E00E88FF0A4CC8BF0A42CFCE98EF0A42CFC71
:10003E008AF0EDA42CFCEA8EF0A4CDA8F08BF0A4EF
:10004E002DCC3825F0FDE98FF0A42CCD35F0FCEB4E
:10005E008EF0A4FEA9F0EB8FF0A4CFC5F02ECD3913
:0F006E00FEE43CFCEAA42DCE35F0FDE43CFC2280
:10007D0075F008758200EF2FFFEE33FECD33CDCC3A
:10008D0033CCC58233C5829BED9AEC99E5829840BD
:10009D000CF582EE9BFEED9AFDEC99FC0FD5F0D69A
:1000AD00E4CEFBE4CDFAE4CCF9A88222B800C1B9C4
:1000BD000059BA002DEC8BF084CFCECDFCE5F0CB02
:1000CD00F97818EF2FFFEE33FEED33FDEC33FCEB3B
:1000DD0033FB10D703994004EB99FB0FD8E5E4F9F6
:1000ED00FA227818EF2FFFEE33FEED33FDEC33FCE3
:1000FD00C933C910D7059BE99A4007EC9BFCE99AD7
:10010D00F90FD8E0E4C9FAE4CCFB2275F010EF2F1B
:10011D00FFEE33FEED33FDCC33CCC833C810D7071B
:10012D009BEC9AE899400AED9BFDEC9AFCE899F856
:0E013D000FD5F0DAE4CDFBE4CCFAE4C8F922E9
:1003D800C2D5E830E70FB2D5E4C39BFBE49AFAE450
:1003E80099F9E498F8EC30E717B2D512040E120028
:1003F800B9E4C39BFBE49AFAE499F9E498F880031A
:100408001200B930D50DE4C39FFFE49EFEE49DFDC4
:04041800E49CFC2242
:10014B00EB9FF5F0EA9E42F0E99D42F0EC6480C82B
:06015B0064809845F022CB
:10026F00020161E493A3F8E493A34003F68001F243
:10027F0008DFF48029E493A3F85407240CC8C33390
:10028F00C4540F4420C8834004F456800146F6DF5F
:10029F00E4800B010204081020408090045BE47E90
:1002AF00019360BCA3FF543F30E509541FFEE49354
:1002BF00A360010ECF54C025E060A840B8E493A31B
:1002CF00FAE493A3F8E493A3C8C582C8CAC583CA46
:1002DF00F0A3C8C582C8CAC583CADFE9DEE780BEFE
:010478000083
:00000001FF
